{
  "_format": "hh-sol-artifact-1",
  "contractName": "FarmCoinFactory",
  "sourceName": "contracts/FarmCoinFactory.sol",
  "abi": [
    {
      "inputs": [
        {
          "internalType": "contract IERC20",
          "name": "_usdcToekn",
          "type": "address"
        },
        {
          "internalType": "contract FarmCoin",
          "name": "_farmCoin",
          "type": "address"
        }
      ],
      "stateMutability": "nonpayable",
      "type": "constructor"
    },
    {
      "anonymous": false,
      "inputs": [
        {
          "indexed": true,
          "internalType": "address",
          "name": "from",
          "type": "address"
        },
        {
          "indexed": false,
          "internalType": "uint256",
          "name": "amount",
          "type": "uint256"
        },
        {
          "indexed": false,
          "internalType": "uint256",
          "name": "lock_down",
          "type": "uint256"
        }
      ],
      "name": "Stake",
      "type": "event"
    },
    {
      "anonymous": false,
      "inputs": [
        {
          "indexed": true,
          "internalType": "address",
          "name": "from",
          "type": "address"
        },
        {
          "indexed": false,
          "internalType": "uint256",
          "name": "amount",
          "type": "uint256"
        }
      ],
      "name": "Unstake",
      "type": "event"
    },
    {
      "inputs": [],
      "name": "farmCoin",
      "outputs": [
        {
          "internalType": "contract FarmCoin",
          "name": "",
          "type": "address"
        }
      ],
      "stateMutability": "view",
      "type": "function"
    },
    {
      "inputs": [
        {
          "internalType": "address",
          "name": "",
          "type": "address"
        }
      ],
      "name": "farmCoinBalance",
      "outputs": [
        {
          "internalType": "uint256",
          "name": "",
          "type": "uint256"
        }
      ],
      "stateMutability": "view",
      "type": "function"
    },
    {
      "inputs": [
        {
          "internalType": "address",
          "name": "",
          "type": "address"
        }
      ],
      "name": "isStaked",
      "outputs": [
        {
          "internalType": "bool",
          "name": "",
          "type": "bool"
        }
      ],
      "stateMutability": "view",
      "type": "function"
    },
    {
      "inputs": [
        {
          "internalType": "address",
          "name": "",
          "type": "address"
        }
      ],
      "name": "lockDownPeriod",
      "outputs": [
        {
          "internalType": "uint256",
          "name": "",
          "type": "uint256"
        }
      ],
      "stateMutability": "view",
      "type": "function"
    },
    {
      "inputs": [
        {
          "internalType": "uint256",
          "name": "amt",
          "type": "uint256"
        },
        {
          "internalType": "uint256",
          "name": "lock_down_period",
          "type": "uint256"
        }
      ],
      "name": "stake",
      "outputs": [],
      "stateMutability": "nonpayable",
      "type": "function"
    },
    {
      "inputs": [
        {
          "internalType": "address",
          "name": "",
          "type": "address"
        }
      ],
      "name": "stakingBalance",
      "outputs": [
        {
          "internalType": "uint256",
          "name": "",
          "type": "uint256"
        }
      ],
      "stateMutability": "view",
      "type": "function"
    },
    {
      "inputs": [
        {
          "internalType": "address",
          "name": "",
          "type": "address"
        }
      ],
      "name": "startTime",
      "outputs": [
        {
          "internalType": "uint256",
          "name": "",
          "type": "uint256"
        }
      ],
      "stateMutability": "view",
      "type": "function"
    },
    {
      "inputs": [
        {
          "internalType": "uint256",
          "name": "amt",
          "type": "uint256"
        }
      ],
      "name": "unstake",
      "outputs": [],
      "stateMutability": "nonpayable",
      "type": "function"
    },
    {
      "inputs": [],
      "name": "usdcToken",
      "outputs": [
        {
          "internalType": "contract IERC20",
          "name": "",
          "type": "address"
        }
      ],
      "stateMutability": "view",
      "type": "function"
    },
    {
      "inputs": [],
      "name": "withdrawYield",
      "outputs": [],
      "stateMutability": "nonpayable",
      "type": "function"
    }
  ],
  "bytecode": "0x60806040523480156200001157600080fd5b5060405162001730380380620017308339818101604052810190620000379190620000ef565b81600560006101000a81548173ffffffffffffffffffffffffffffffffffffffff021916908373ffffffffffffffffffffffffffffffffffffffff16021790555080600660006101000a81548173ffffffffffffffffffffffffffffffffffffffff021916908373ffffffffffffffffffffffffffffffffffffffff1602179055505050620001c0565b600081519050620000d2816200018c565b92915050565b600081519050620000e981620001a6565b92915050565b600080604083850312156200010357600080fd5b60006200011385828601620000d8565b92505060206200012685828601620000c1565b9150509250929050565b60006200013d826200016c565b9050919050565b6000620001518262000130565b9050919050565b6000620001658262000130565b9050919050565b600073ffffffffffffffffffffffffffffffffffffffff82169050919050565b620001978162000144565b8114620001a357600080fd5b50565b620001b18162000158565b8114620001bd57600080fd5b50565b61156080620001d06000396000f3fe608060405234801561001057600080fd5b506004361061009e5760003560e01c80636177fd18116100665780636177fd181461015b5780636e1dc66e1461018b5780637b0472f0146101bb5780639ca04f18146101d7578063e507a8a4146102075761009e565b806311eac855146100a35780631cf0069f146100c15780632e17de78146100df57806345bc78ab146100fb5780634eca57f31461012b575b600080fd5b6100ab610211565b6040516100b89190611125565b60405180910390f35b6100c9610237565b6040516100d6919061110a565b60405180910390f35b6100f960048036038101906100f49190610f32565b61025d565b005b61011560048036038101906101109190610ee0565b6106aa565b60405161012291906111a0565b60405180910390f35b61014560048036038101906101409190610ee0565b6106c2565b60405161015291906111a0565b60405180910390f35b61017560048036038101906101709190610ee0565b6106da565b60405161018291906110ef565b60405180910390f35b6101a560048036038101906101a09190610ee0565b6106fa565b6040516101b291906111a0565b60405180910390f35b6101d560048036038101906101d09190610f84565b610712565b005b6101f160048036038101906101ec9190610ee0565b610b3c565b6040516101fe91906111a0565b60405180910390f35b61020f610b54565b005b600560009054906101000a900473ffffffffffffffffffffffffffffffffffffffff1681565b600660009054906101000a900473ffffffffffffffffffffffffffffffffffffffff1681565b6000811180156102ab5750806000803373ffffffffffffffffffffffffffffffffffffffff1673ffffffffffffffffffffffffffffffffffffffff1681526020019081526020016000205410155b6102ea576040517f08c379a00000000000000000000000000000000000000000000000000000000081526004016102e190611160565b60405180910390fd5b60006102f63383610c69565b90506000600260003373ffffffffffffffffffffffffffffffffffffffff1673ffffffffffffffffffffffffffffffffffffffff168152602001908152602001600020544261034591906112d6565b9050600160003373ffffffffffffffffffffffffffffffffffffffff1673ffffffffffffffffffffffffffffffffffffffff1681526020019081526020016000205481101561045b57600560009054906101000a900473ffffffffffffffffffffffffffffffffffffffff1673ffffffffffffffffffffffffffffffffffffffff1663a9059cbb33600a6009876103dc919061127c565b6103e6919061124b565b6040518363ffffffff1660e01b81526004016104039291906110c6565b602060405180830381600087803b15801561041d57600080fd5b505af1158015610431573d6000803e3d6000fd5b505050506040513d601f19601f820116820180604052508101906104559190610f09565b5061050c565b600560009054906101000a900473ffffffffffffffffffffffffffffffffffffffff1673ffffffffffffffffffffffffffffffffffffffff1663a9059cbb33856040518363ffffffff1660e01b81526004016104b89291906110c6565b602060405180830381600087803b1580156104d257600080fd5b505af11580156104e6573d6000803e3d6000fd5b505050506040513d601f19601f8201168201806040525081019061050a9190610f09565b505b826000803373ffffffffffffffffffffffffffffffffffffffff1673ffffffffffffffffffffffffffffffffffffffff168152602001908152602001600020600082825461055a91906112d6565b9250508190555060008060003373ffffffffffffffffffffffffffffffffffffffff1673ffffffffffffffffffffffffffffffffffffffff168152602001908152602001600020541415610601576000600460003373ffffffffffffffffffffffffffffffffffffffff1673ffffffffffffffffffffffffffffffffffffffff16815260200190815260200160002060006101000a81548160ff0219169083151502179055505b81600360003373ffffffffffffffffffffffffffffffffffffffff1673ffffffffffffffffffffffffffffffffffffffff168152602001908152602001600020600082825461065091906111f5565b925050819055503373ffffffffffffffffffffffffffffffffffffffff167f85082129d87b2fe11527cb1b3b7a520aeb5aa6913f88a3d8757fe40d1db02fdd8460405161069d91906111a0565b60405180910390a2505050565b60006020528060005260406000206000915090505481565b60036020528060005260406000206000915090505481565b60046020528060005260406000206000915054906101000a900460ff1681565b60026020528060005260406000206000915090505481565b6000821180156107cc575081600560009054906101000a900473ffffffffffffffffffffffffffffffffffffffff1673ffffffffffffffffffffffffffffffffffffffff166370a08231336040518263ffffffff1660e01b81526004016107799190611074565b60206040518083038186803b15801561079157600080fd5b505afa1580156107a5573d6000803e3d6000fd5b505050506040513d601f19601f820116820180604052508101906107c99190610f5b565b10155b61080b576040517f08c379a000000000000000000000000000000000000000000000000000000000815260040161080290611140565b60405180910390fd5b600460003373ffffffffffffffffffffffffffffffffffffffff1673ffffffffffffffffffffffffffffffffffffffff16815260200190815260200160002060009054906101000a900460ff16156109015760006108a7336000803373ffffffffffffffffffffffffffffffffffffffff1673ffffffffffffffffffffffffffffffffffffffff16815260200190815260200160002054610c69565b905080600360003373ffffffffffffffffffffffffffffffffffffffff1673ffffffffffffffffffffffffffffffffffffffff16815260200190815260200160002060008282546108f891906111f5565b92505081905550505b600560009054906101000a900473ffffffffffffffffffffffffffffffffffffffff1673ffffffffffffffffffffffffffffffffffffffff166323b872dd3330856040518463ffffffff1660e01b81526004016109609392919061108f565b602060405180830381600087803b15801561097a57600080fd5b505af115801561098e573d6000803e3d6000fd5b505050506040513d601f19601f820116820180604052508101906109b29190610f09565b50816000803373ffffffffffffffffffffffffffffffffffffffff1673ffffffffffffffffffffffffffffffffffffffff1681526020019081526020016000206000828254610a0191906111f5565b9250508190555042600260003373ffffffffffffffffffffffffffffffffffffffff1673ffffffffffffffffffffffffffffffffffffffff1681526020019081526020016000208190555080600160003373ffffffffffffffffffffffffffffffffffffffff1673ffffffffffffffffffffffffffffffffffffffff168152602001908152602001600020819055506001600460003373ffffffffffffffffffffffffffffffffffffffff1673ffffffffffffffffffffffffffffffffffffffff16815260200190815260200160002060006101000a81548160ff0219169083151502179055503373ffffffffffffffffffffffffffffffffffffffff167f5af417134f72a9d41143ace85b0a26dce6f550f894f2cbc1eeee8810603d91b68383604051610b309291906111bb565b60405180910390a25050565b60016020528060005260406000206000915090505481565b600660009054906101000a900473ffffffffffffffffffffffffffffffffffffffff1673ffffffffffffffffffffffffffffffffffffffff166340c10f1933600360003373ffffffffffffffffffffffffffffffffffffffff1673ffffffffffffffffffffffffffffffffffffffff168152602001908152602001600020546040518363ffffffff1660e01b8152600401610bf09291906110c6565b600060405180830381600087803b158015610c0a57600080fd5b505af1158015610c1e573d6000803e3d6000fd5b505050506000600360003373ffffffffffffffffffffffffffffffffffffffff1673ffffffffffffffffffffffffffffffffffffffff16815260200190815260200160002081905550565b600060011515600460008573ffffffffffffffffffffffffffffffffffffffff1673ffffffffffffffffffffffffffffffffffffffff16815260200190815260200160002060009054906101000a900460ff16151514610cfe576040517f08c379a0000000000000000000000000000000000000000000000000000000008152600401610cf590611180565b60405180910390fd5b6000600260008573ffffffffffffffffffffffffffffffffffffffff1673ffffffffffffffffffffffffffffffffffffffff1681526020019081526020016000205442610d4b91906112d6565b905060006201518082610d5e919061124b565b9050600080600160008873ffffffffffffffffffffffffffffffffffffffff1673ffffffffffffffffffffffffffffffffffffffff168152602001908152602001600020541415610dd5578161016d600a87610dba919061124b565b610dc4919061124b565b610dce919061127c565b9050610e80565b62ed4e00600160008873ffffffffffffffffffffffffffffffffffffffff1673ffffffffffffffffffffffffffffffffffffffff168152602001908152602001600020541415610e4b578161016d600587610e30919061124b565b610e3a919061124b565b610e44919061127c565b9050610e7f565b8161016d600a600388610e5e919061127c565b610e68919061124b565b610e72919061124b565b610e7c919061127c565b90505b5b80935050505092915050565b600081359050610e9b816114e5565b92915050565b600081519050610eb0816114fc565b92915050565b600081359050610ec581611513565b92915050565b600081519050610eda81611513565b92915050565b600060208284031215610ef257600080fd5b6000610f0084828501610e8c565b91505092915050565b600060208284031215610f1b57600080fd5b6000610f2984828501610ea1565b91505092915050565b600060208284031215610f4457600080fd5b6000610f5284828501610eb6565b91505092915050565b600060208284031215610f6d57600080fd5b6000610f7b84828501610ecb565b91505092915050565b60008060408385031215610f9757600080fd5b6000610fa585828601610eb6565b9250506020610fb685828601610eb6565b9150509250929050565b610fc98161130a565b82525050565b610fd88161131c565b82525050565b610fe781611352565b82525050565b610ff681611376565b82525050565b6000611009603d836111e4565b9150611014826113f8565b604082019050919050565b600061102c6042836111e4565b915061103782611447565b606082019050919050565b600061104f6019836111e4565b915061105a826114bc565b602082019050919050565b61106e81611348565b82525050565b60006020820190506110896000830184610fc0565b92915050565b60006060820190506110a46000830186610fc0565b6110b16020830185610fc0565b6110be6040830184611065565b949350505050565b60006040820190506110db6000830185610fc0565b6110e86020830184611065565b9392505050565b60006020820190506111046000830184610fcf565b92915050565b600060208201905061111f6000830184610fde565b92915050565b600060208201905061113a6000830184610fed565b92915050565b6000602082019050818103600083015261115981610ffc565b9050919050565b600060208201905081810360008301526111798161101f565b9050919050565b6000602082019050818103600083015261119981611042565b9050919050565b60006020820190506111b56000830184611065565b92915050565b60006040820190506111d06000830185611065565b6111dd6020830184611065565b9392505050565b600082825260208201905092915050565b600061120082611348565b915061120b83611348565b9250827fffffffffffffffffffffffffffffffffffffffffffffffffffffffffffffffff038211156112405761123f61139a565b5b828201905092915050565b600061125682611348565b915061126183611348565b925082611271576112706113c9565b5b828204905092915050565b600061128782611348565b915061129283611348565b9250817fffffffffffffffffffffffffffffffffffffffffffffffffffffffffffffffff04831182151516156112cb576112ca61139a565b5b828202905092915050565b60006112e182611348565b91506112ec83611348565b9250828210156112ff576112fe61139a565b5b828203905092915050565b600061131582611328565b9050919050565b60008115159050919050565b600073ffffffffffffffffffffffffffffffffffffffff82169050919050565b6000819050919050565b600061135d82611364565b9050919050565b600061136f82611328565b9050919050565b600061138182611388565b9050919050565b600061139382611328565b9050919050565b7f4e487b7100000000000000000000000000000000000000000000000000000000600052601160045260246000fd5b7f4e487b7100000000000000000000000000000000000000000000000000000000600052601260045260246000fd5b7f7374616b696e6720616d6f756e7420636f756c64206e6f74206265207a65726f60008201527f206f7220696e73756666696369656e7420757364632062616c616e6365000000602082015250565b7f756e7374616b696e6720616d6f756e7420636f756c64206e6f74206265207a6560008201527f726f206f7220696e73756666696369656e74207374616b696e672062616c616e60208201527f6365000000000000000000000000000000000000000000000000000000000000604082015250565b7f7468652075736572206d757374206265207374616b65642e2000000000000000600082015250565b6114ee8161130a565b81146114f957600080fd5b50565b6115058161131c565b811461151057600080fd5b50565b61151c81611348565b811461152757600080fd5b5056fea2646970667358221220d830d6dbd28c1e33443eaa5eb85478ad4966c45fc8e5b111b8b7c38d0cd1fe6864736f6c63430008040033",
  "linkReferences": {},
  "deployedLinkReferences": {}
}